:020000040800F2
:1000000000000520212600082D0600082F06000804
:10001000310600083306000835060008000000001D
:10002000000000000000000000000000370600088B
:1000300039060008000000003B0600083D060008E5
:100040007126000871260008712600087126000834
:100050007126000871260008712600087126000824
:100060007126000871260008712600087126000814
:100070007126000871260008712600087126000804
:1000800071260008712600087126000871260008F4
:1000900071260008712600087126000871260008E4
:1000A00071260008712600087126000871260008D4
:1000B00071260008712600087126000871260008C4
:1000C00071260008712600087126000871260008B4
:1000D00071260008712600087126000871260008A4
:1000E0007126000871260008712600087126000894
:1000F0007126000871260008712600087126000884
:100100007126000871260008712600087126000873
:100110007126000871260008712600087126000863
:100120007126000871260008712600087126000853
:100130007126000871260008712600087126000843
:100140007126000871260008712600087126000833
:100150007126000871260008712600087126000823
:100160007126000871260008712600087126000813
:1001700071260008712600087126000800000000A2
:1001800071260008712600087126000871260008F3
:1001900071260008712600087126000871260008E3
:1001A0007126000871260008000000000000000011
:1001B00053B94AB9002908BF00281CBF4FF0FF31CE
:1001C0004FF0FF3000F00CB8ADF1080C6DE904CE33
:1001D00002F07CFADDF804E0DDE9022304B07047A8
:1001E000704700BF10B5054C237833B9044B13B1E9
:1001F0000448AFF300800123237010BD10000020DD
:10020000000000008829000808B5034B1BB1034912
:100210000348AFF3008008BD000000001400002078
:1002200088290008F0B58BB000250595069507953F
:1002300008950995324CE36C43F00403E364E36CE6
:1002400003F004030093009BE36C43F08003E3643A
:10025000E36C03F080030193019BE36C43F0020322
:10026000E364E36C03F002030293029BE36C43F04C
:100270004003E364E36C03F040030393039B00F04B
:10028000C9FCE36C43F00103E364E36C03F0010396
:100290000493049B1B4F2A464FF48141384600F0DB
:1002A000A2FB194C2A464021204600F09CFB4FF44B
:1002B000005305934FF488130693079505A9134837
:1002C00000F092FA4FF481430593012606960795B4
:1002D000089505A9384600F087FA2023059306956E
:1002E000079505A9204600F07FFA4023059306965E
:1002F0000795089505A9204600F076FA0BB0F0BDE9
:10030000001002400004004800180048000800489F
:1003100072B6FEE708B50B480B4B03600B4B43600E
:100320004FF0805383600023C36003610C2242615D
:1003300083610362436201F0AEFF00B908BDFFF7BD
:10034000E7FF00BF38050020008000402433030091
:1003500008B50B484FF0A043036006234360022317
:10036000036183610123C3610022026242628362EE
:100370000263C36200F03CFB00B908BDFFF7C8FF91
:100380002C00002000B597B04422002105A802F0FF
:1003900070F90023009301930293039304934FF4A5
:1003A000007000F0E7FB002833D100F0D3FB1C4ABB
:1003B000D2F8903023F01803C2F89030142305933C
:1003C000012307930B9300220C9260220D920222CC
:1003D0000F921093119347231293139214920623B2
:1003E000159305A800F0C0FCA8B90F2300930323C0
:1003F0000193002302934FF480620392049302213D
:10040000684600F0EFFF40B901F06CFC17B05DF8F2
:1004100004FBFFF77DFFFFF77BFFFFF779FF00BFCE
:100420000010024008B500F03FF9FFF7ABFFFFF7FF
:10043000F9FEFFF76FFFFFF78BFF07E00022802137
:10044000204600F0D0FA322000F050F90C4C012286
:100450008021204600F0C7FA642000F047F94FF4ED
:100460000051204600F0B8FA0028E7D10022802190
:10047000034800F0B8FA642000F038F9E6E700BF5E
:100480000004004882B00A4B1A6E42F001021A665C
:100490001A6E02F001020092009A9A6D42F08052A8
:1004A0009A659B6D03F080530193019B02B07047E6
:1004B0000010024010B5AAB00446002125912691F3
:1004C0002791289129918C2202A802F0D2F8226863
:1004D000194B9A4201D02AB010BD2023029302A8E2
:1004E00001F0C8F920BB154BDA6D42F00102DA6564
:1004F000DA6D02F001020092009ADA6C42F04002DA
:10050000DA64DB6C03F040030193019B00F082FB93
:100510004FF4C073259302232693002327930323CC
:1005200028930823299325A9054800F05DF9D2E70F
:10053000FFF7EEFED7E700BF00800040001002404A
:100540000018004830B5ADB004460021279128912D
:1005500029912A912B918C2204A802F08AF8236811
:10056000B3F1A04F01D02DB030BD4FF40053049330
:100570004FF080632093012305930693182307937C
:100580000223089309930A934FF480130B9304A852
:1005900001F070F9002840D1234CE36C43F00103D3
:1005A000E364E36C03F001030193019B4FF4E85310
:1005B0002793022328930025299503232A930A23AE
:1005C0002B9327A94FF0904000F00EF94FF40073E1
:1005D00027932895299527A94FF0904000F004F91A
:1005E000E36C43F48053E364E36C03F480530293BD
:1005F000029BA36D13F0805F12D1A36D43F0805373
:10060000A365A36D03F080530393039B00F0FAFAF4
:10061000A36D23F08053A365A5E7FFF779FEBBE741
:1006200000F0F0FA9FE700BF00100240FEE7FEE78F
:10063000FEE7FEE7FEE770477047704708B500F039
:1006400043F808BD034AD2F8883043F47003C2F877
:100650008830704700ED00E0104B1B780BB901208B
:10066000704710B504464FF47A70B0FBF3F30C4AB0
:100670001068B0FBF3F000F0A3F868B90F2C01D9B3
:1006800001200AE0002221464FF0FF3000F088F8F8
:10069000044B1C60002000E0012010BD040000207D
:1006A000000000200800002010B5032000F066F8CC
:1006B0000020FFF7D1FF10B10124204610BD0446F1
:1006C000FFF7E0FEF9E70000034B1B78034A1168CF
:1006D0000B441360704700BF04000020C0050020D9
:1006E000014B1868704700BFC005002038B50446AC
:1006F000FFF7F6FF0546B4F1FF3F02D0044B1B782D
:100700001C44FFF7EDFF401BA042FAD338BD00BFE9
:1007100004000020002808DB0901C9B200F1604094
:1007200000F5614080F80013704700F00F000901E8
:10073000C9B2014B1954704714ED00E000B500F048
:100740000700C0F1070CBCF1040F28BF4FF0040CE8
:10075000031D062B0FD9C31E4FF0FF3E0EFA0CF0FF
:1007600021EA000199400EFA03FE22EA0E0241EA54
:1007700002005DF804FB0023EEE70000074AD3689F
:1007800023F4E0631B041B0C000200F4E06003434D
:1007900043F0BF6343F40033D360704700ED00E0E3
:1007A00010B50446054BD868C0F30220FFF7C6FF1A
:1007B00001462046FFF7AEFF10BD00BF00ED00E090
:1007C0000138B0F1807F0BD24FF0E0235861054A29
:1007D000F02182F823100020986107221A617047E7
:1007E0000120704700ED00E0F0B583B0002362E027
:1007F00085685E000324B44025EA0405CC68B44053
:100800002C438460456825EA0C054C68C4F3001449
:100810009C402C43446060E0DD08083550F82540DA
:1008200003F0070C4FEA8C0C4FF00F0E0EFA0CFE83
:1008300024EA0E0E0C6904FA0CF444EA0E0440F8A3
:10084000254061E0072400E0002404FA0EF42C4364
:100850000CF1020C5C4D45F82C405C4CA568D4436F
:1008600025EA02064F6817F4801F01D042EA050608
:10087000564DAE60ED6804EA05064F6817F4001F98
:1008800001D042EA0506514DEE606D6804EA0506A6
:100890004F6817F4003F01D042EA05064B4D6E60E9
:1008A0002D682C404E6816F4803F01D042EA0504C2
:1008B000464A146001330A6832FA03F400F081807A
:1008C0004FF0010C0CFA03FC1CEA0202F2D04C6857
:1008D00004F00304013C012C8AD94C6804F00304A1
:1008E000032C0CD0C4685D004FF0030C0CFA05FC1F
:1008F00024EA0C0C8C68AC4044EA0C04C4604C68DC
:1009000004F00304022C87D004684FEA430E4FF032
:10091000030C0CFA0EFC24EA0C0C4C6804F00304E3
:1009200004FA0EF444EA0C0404604C6814F4403FEA
:10093000C0D0274C256E45F001052566246E04F0D5
:1009400001040194019C4FEA930C0CF102051E4C2A
:1009500054F8255003F0030E4FEA8E0E0F2404FACC
:100960000EF425EA0405B0F1904F3FF46DAF194C39
:10097000A0421AD004F58064A04218D004F5806427
:10098000A04216D004F58064A04214D004F580641F
:10099000A04212D004F58064A04210D004F5806417
:1009A000A0423FF44FAF08244FE701244DE7022453
:1009B0004BE7032449E7042447E7052445E70624D9
:1009C00043E703B0F0BD00BF000001400004014058
:1009D00000100240000400480369194201D00120C0
:1009E0007047002070470AB181617047816270478B
:1009F00070B58AB0002800F097800546046890F82A
:100A0000BD343BB3032385F8BD34E36B13F4807F1F
:100A100001D10023EB60286801F0B2FC2C4654F8A9
:100A2000106BEC460FCCACE80F000FCCACE80F001D
:100A300094E803008CE803002B1D0ECB304601F038
:100A400083FC044658B1022385F8BD3401242046B6
:100A50000AB070BD80F8BC34FFF774FDD2E7002106
:100A6000286801F0ABFD234616E003EBC30205EB5B
:100A70008202012182F83D1082F83C30A2F8563003
:100A8000002182F840105164916403EBC30205EB2E
:100A90008202D1640133DBB269688B42E5D316E090
:100AA00004EBC40305EB8303002283F87D2283F863
:100AB0007C4283F88022C3F88422C3F8882204EBA6
:100AC000C40305EB8303C3F88C220134E4B2A142D2
:100AD000E6D82C4654F8106BEC460FCCACE80F006F
:100AE0000FCCACE80F0094E803008CE803002B1D4A
:100AF0000ECB304601F0A0FC044660B9002385F817
:100B00003830012385F8BD346B6A012B08D0286882
:100B100001F042FD9BE7022385F8BD34012496E7EE
:100B2000284600F003F8F2E7012490E70346026844
:100B30000121C0F80015002083F8F404936943F004
:100B400000639361536D43F0805343F00303536597
:100B500070470000024A136843F4807313607047C3
:100B600000700040024B186800F4C060704700BF7E
:100B700000700040B0F5007F0FD01F4B1B6803F4DE
:100B8000C063B3F5806F34D01B4A136823F4C0638D
:100B900043F48063136000207047174B1B6803F415
:100BA000C063B3F5007F20D0134A136823F4C063F9
:100BB00043F400731360114B1B68322202FB03F3F2
:100BC0000F4AA2FB03239B0C013300E0013B0A4ABE
:100BD000526912F4806F01D0002BF7D1064B5B698C
:100BE00013F4806F03D1002070470020704703206A
:100BF00070470020704700BF0070004000000020D8
:100C000083DE1B43024A536843F48063536070479A
:100C100000700040024A536843F400735360704709
:100C20000070004030B583B00446204B9B6D13F03C
:100C3000805F0BD0FFF796FFB0F5007F17D0802CB8
:100C40001FD82DD0702C2DD000211BE0174DAB6D7F
:100C500043F08053AB65AB6D03F080530193019B70
:100C6000FFF780FFAB6D23F08053AB65E4E7802C8A
:100C700003D9A02C03D9022104E0002102E00121C4
:100C800000E003210A4A136823F007030B431360B3
:100C9000136803F007038B4206D1002003B030BD78
:100CA0000221EFE70121EDE70120F7E70010024004
:100CB00000200240284A9368D26802F0030213F031
:100CC0000C030AD00C2B06D0042B1FD0082B20D0ED
:100CD0000020024610E0012AF6D11F4A126812F0E5
:100CE000080F0CD11C4AD2F89420C2F303221B49EE
:100CF00051F8222043B100200C2B0DD07047164A2A
:100D00001268C2F30312F2E71046F5E71448002216
:100D1000F2E714480022EFE70F4BDB6803F0030310
:100D2000022B16D0032B00D10E4A0B49CB68C3F31C
:100D300002130133C868C0F3062002FB00F0B0FBC9
:100D4000F3F0CB68C3F3416301335B00B0FBF3F016
:100D5000D4E7034AE9E700BF00100240A0290008D9
:100D60000024F40000127A00002800F02283F0B57D
:100D700083B00446964B9D6805F00C05DE6806F0CE
:100D80000306036813F0100F5AD0E5B10C2D18D0EC
:100D9000A369002B00F0BB808D4A136843F0010368
:100DA0001360FFF79DFC0746894B1B6813F0020F89
:100DB00040F09A80FFF794FCC01B0228F4D903206E
:100DC00002E3012EE4D1824B1B6813F0020F03D023
:100DD000A369002B00F0EF82206A7D4B1B6813F0A3
:100DE000080F5BD07A4B1B6803F0F00398425CD885
:100DF000774B1A6842F008021A601A6822F0F00273
:100E0000216A0A431A605A6822F47F42E16942EA81
:100E100001225A60002D60D0FFF74CFF6C4B9B689D
:100E2000C3F303136B4AD35C03F01F03D8406A4B30
:100E300018606A4B1868FFF70FFC002840F0C48266
:100E4000236813F0010F00F08180082D75D00C2D60
:100E500071D06368B3F5803F00F09780B3F5A02FA1
:100E600000F099805A4B1A6822F480321A601A688E
:100E700022F480221A606368002B00F09980FFF74B
:100E80002FFC0746524B1B6813F4003F5ED1FFF75F
:100E900027FCC01B6428F5D9032095E24C4BD3F8FE
:100EA00094301B0903F0F003A0E7FFF7BBFE002816
:100EB00040F08382464B1A6842F008021A601A68B2
:100EC00022F0F002216A0A431A605A6822F47F4233
:100ED000E16942EA01225A609EE7206AFFF7A2FE1A
:100EE000002899D001206FE2394B1A6842F00802BD
:100EF0001A601A6822F0F002216A0A431A605A68DE
:100F000022F47F42E16942EA01225A6098E7304ABE
:100F1000136823F001031360FFF7E2FB07462C4B35
:100F20001B6813F0020F8BD0FFF7DAFBC01B0228FF
:100F3000F5D9032048E2032E8BD1254B1B6813F40F
:100F4000003F03D06368002B00F03982236813F060
:100F5000020F58D0042D45D00C2D41D0E368002B52
:100F600077D01B4A136843F480731360FFF7B8FB14
:100F70000646174B1B6813F4806F61D1FFF7B0FB77
:100F8000801B0228F5D903201EE2114A136843F49E
:100F9000803313606FE703F18043A3F53C331A6895
:100FA00042F480221A601A6842F480321A6062E7C2
:100FB000FFF796FB0746064B1B6813F4003FC5D0AE
:100FC000FFF78EFBC01B6428F5D90320FCE100BFAE
:100FD00000100240D829000800000020080000206E
:100FE000022EBBD1A74B1B6813F4806F03D0E368BC
:100FF000002B00F0E681A34A536823F0FE432169E9
:1010000043EA01635360236813F0080F4CD063690F
:101010009BB39C4AD2F8943043F00103C2F8943059
:10102000FFF75EFB0646974BD3F8943013F0020FA0
:101030003AD1FFF755FB801B0228F4D90320C3E106
:10104000904A536823F0FE43216943EA01635360E9
:10105000D9E78C4A136823F480731360FFF740FBD1
:101060000646884B1B6813F4806FCCD0FFF738FB23
:10107000801B0228F5D90320A6E1824AD2F89430D9
:1010800023F00103C2F89430FFF72AFB06467D4B9C
:10109000D3F8943013F0020F06D0FFF721FB801B2A
:1010A0000228F4D903208FE1236813F0040F7AD0CB
:1010B000744B9B6D13F0805F36D1724B9A6D42F08A
:1010C00080529A659B6D03F080530193019B01262A
:1010D0006D4B1B6813F4807F28D0A368012B39D097
:1010E000052B3FD0674BD3F8902022F00102C3F8C4
:1010F0009020D3F8902022F00402C3F89020A36837
:10110000002B3DD0FFF7ECFA07465E4BD3F890304A
:1011100013F0020F46D1FFF7E3FAC01B41F2883308
:101120009842F2D903204FE10026D1E7564A1368CE
:1011300043F480731360FFF7D3FA0746524B1B68E2
:1011400013F4807FC9D1FFF7CBFAC01B0228F5D971
:10115000032039E14B4AD2F8903043F00103C2F842
:101160009030CCE7474BD3F8902042F00402C3F80C
:101170009020D3F8902042F00102C3F89020BEE7FF
:10118000FFF7AEFA07463F4BD3F8903013F0020F4B
:1011900008D0FFF7A5FAC01B41F288339842F2D974
:1011A000032011E1E6B9236813F0200F35D0636AFC
:1011B000E3B1344AD2F8983043F00103C2F89830D2
:1011C000FFF78EFA06462F4BD3F8983013F0020F34
:1011D00023D1FFF785FA801B0228F4D90320F3E01E
:1011E000284A936D23F080539365DCE7254AD2F8B3
:1011F000983023F00103C2F89830FFF771FA0646E1
:10120000204BD3F8983013F0020F06D0FFF768FA9E
:10121000801B0228F4D90320D6E0A36A002B00F03B
:10122000D280022B17D00C2D00F0D480154A136801
:1012300023F080731360FFF753FA0446114B1B68C9
:1012400013F0007F00F0AE80FFF74AFA001B02287F
:10125000F4D90320B8E00B4BDB6803F00301E26A2A
:10126000914213D00C2D00F0B180064B1B6813F097
:10127000806F40F0AD80034B1B6813F0805F2FD070
:101280000120A1E0001002400070004003F0700255
:10129000216B0139B2EB011FE4D103F4FE42616B13
:1012A000B2EB012FDED103F07842A16BB2EBC16F3C
:1012B000D8D103F4C001E26B5208013AB1EB425FAE
:1012C000D0D103F0C063226C5208013AB3EB426FF5
:1012D000C8D1414B1B6813F0007F49D0002073E058
:1012E0003D4A136823F080731360FFF7F9F9054650
:1012F000394B1B6813F0007F06D0FFF7F1F9401B54
:101300000228F5D903205FE0334AD36833491940F6
:10131000E36A206B013843EA0013606B43EA002361
:10132000E06B4008013843EA4053206C4008013824
:1013300043EA4063A06B43EAC0631943D16013687A
:1013400043F080731360D36843F08073D360FFF77A
:10135000C7F90446204B1B6813F0007F06D1FFF746
:10136000BFF9001B0228F5D903202DE000202BE057
:10137000194B1A6842F080721A60DA6842F0807283
:10138000DA60FFF7ADF90446134B1B6813F0007FDA
:1013900006D1FFF7A5F9031B022BF5D9032013E0B3
:1013A000002011E00C4AD1680D4B0B40D3600020A7
:1013B0000AE001207047012006E0012004E001203E
:1013C00002E0012000E0002003B0F0BD0120FBE7B7
:1013D0000120F9E70120F7E7001002408C809D0111
:1013E000FCFFEEFE002800F0AF8070B50D4604460D
:1013F000594B1B6803F007038B420BD2564A136804
:1014000023F007030B431360136803F007038B42B9
:1014100040F09C80236813F0020F0CD0A2684F4B61
:101420009B6803F0F0039A4205D94C498B6823F07E
:10143000F0031A438A60236813F0010F39D0636800
:10144000032B09D0022B26D063BB444A126812F04A
:10145000020F06D1012076E0404A126812F0007FA8
:1014600076D03E498A6822F0030213438B60FFF76F
:1014700037F90646394B9B6803F00C036268B3EBFF
:10148000820F16D0FFF72CF9801B41F28833984267
:10149000F0D9032057E0314A126812F4003FE0D13E
:1014A000012050E02D4A126812F4806FD9D101203A
:1014B00049E0236813F0020F0CD0A268274B9B6809
:1014C00003F0F0039A4205D224498B6823F0F0031D
:1014D0001A438A60204B1B6803F00703AB420AD90A
:1014E0001D4A136823F007032B431360136803F0AE
:1014F0000703AB422ED1236813F0040F06D0174A1E
:10150000936823F4E063E1680B439360236813F06E
:10151000080F07D0114A936823F46053216943EA06
:10152000C1039360FFF7C6FB0C4B9B68C3F3031327
:101530000B4AD35C03F01F03D8400A4B18600A4BD8
:101540001868FFF789F870BD012070470120FAE79D
:101550000120F8E70120F6E70020024000100240D9
:10156000D82900080000002008000020014B18685E
:10157000704700BF0000002008B5FFF7F7FF054BDC
:101580009B68C3F30223044AD35C03F01F03D840D3
:1015900008BD00BF00100240D029000808B5FFF7C1
:1015A000E5FF054B9B68C3F3C223044AD35C03F0F9
:1015B0001F03D84008BD00BF00100240D02900081A
:1015C000F8B504460D46584BDB6813F0030F17D0EF
:1015D000554BDB6803F003030268934201D00126F8
:1015E00016E0002A00F09E804F4BDB68C3F3021325
:1015F00001334268934201D0012609E000261BE036
:101600000368022B57D0032B5CD0012B02D001269C
:101610003046F8BD444A126812F0020F5ED04248CC
:10162000C26822F073026168013943EA011313436F
:10163000C3600026002EEBD13B4A136823F0806381
:101640001360FFF74DF80746374B1B6813F0006F28
:1016500005D0FFF745F8C31B022BF5D90326002E52
:10166000D6D1002D3CD130490B6923F0784323F4C7
:10167000FE43A068E268D20642EA002213430B61EF
:10168000294A136843F080631360FFF729F8054681
:10169000254B1B6813F0006F05D1FFF721F8401BA5
:1016A0000228F5D90326002EB2D11F4A1369A16979
:1016B0000B431361ACE71C4A126812F4806FAED181
:1016C0000126A5E7184A126812F4003FA7D1164A6E
:1016D000126812F4802FA2D1012699E70126A9E70A
:1016E000012D0FD01048026922F0C06222F4FE42A0
:1016F000A16863695B08013B5B0643EA01231A4367
:101700000261BDE70848026922F4C00222F4FE42E9
:10171000A16823695B08013B5B0543EA01231A4387
:101720000261ADE7012673E700100240F8B50446F8
:101730000D464F4BDB6813F0030F17D04C4BDB68A3
:1017400003F003030268934201D0012616E0002A49
:1017500000F08C80464BDB68C3F302130133426810
:10176000934201D0012609E000261BE00368022B0A
:1017700057D0032B5CD0012B02D001263046F8BD98
:101780003B4A126812F0020F5ED03948C26822F05C
:1017900073026168013943EA01131343C3600026F1
:1017A000002EEBD1324A136823F080531360FEF70A
:1017B00097FF07462E4B1B6813F0005F05D0FEF71E
:1017C0008FFFC31B022BF5D90326002ED6D1002D87
:1017D0003CD127494B6923F0784323F4FE43A068AA
:1017E000E268D20642EA002213434B61204A1368A2
:1017F00043F080531360FEF773FF05461C4B1B68D4
:1018000013F0005F05D1FEF76BFF401B0228F5D9EE
:101810000326002EB2D1164A536961690B43536106
:10182000ACE7134A126812F4806FAED10126A5E727
:101830000F4A126812F4003FA7D10D4A126812F441
:10184000802FA2D1012699E70126A9E7084842691D
:1018500022F0C06222F4FE42A16823695B08013BCA
:101860005B0643EA01231A434261BFE7012685E78D
:10187000001002402DE9F04182B00446036813F4E1
:10188000006F33D0836EB3F5000F1FD00CD823B395
:10189000B3F5800F05D100212030FFF747FF064642
:1018A00020E001273E4623E0B3F5400F0BD1002690
:1018B000604AD2F8883023F44003A16E0B43C2F88B
:1018C0008830002714E001273E4611E0594AD368CA
:1018D00043F48033D3600026EAE700210430FFF7A9
:1018E0006FFE0646002EE3D0374601E000273E4655
:1018F000236813F4805F30D0E36EB3F1007F1FD014
:101900000DD81BB3B3F1807F06D1002104F1200074
:10191000FFF70CFF064605E001273E461DE0B3F148
:10192000407F0AD1C6B9434AD2F8883023F04073C9
:10193000E16E0B43C2F888300FE001273E460CE011
:101940003C4AD36843F48033D360EBE70021201D89
:10195000FFF736FE0646E5E73746236813F4003FF7
:1019600071D0344B9B6D13F0805F4ED1314B9A6D2B
:1019700042F080529A659B6D03F080530193019B66
:101980004FF001082C4A136843F480731360FEF78C
:10199000A7FE0546284B1B6813F4807F05D1FEF790
:1019A0009FFE401B0228F5D90326002E46D1214B6D
:1019B000D3F8903013F4407316D0D4F888209A42AC
:1019C00012D01C4AD2F8903023F44073D2F8901011
:1019D00041F48031C2F89010D2F8901021F4803197
:1019E000C2F89010C2F8903013F0010F10D1002E01
:1019F00040F035810F4AD2F8903023F44073D4F888
:101A000088100B43C2F8903019E04FF00008B9E796
:101A1000FEF766FE0546074BD3F8903013F0020F31
:101A2000E5D1FEF75DFE401B41F288339842F2D9C2
:101A30000326DCE700100240007000403746B8F192
:101A4000000F40F00E81236813F0010F08D0A44A64
:101A5000D2F8883023F00303A16B0B43C2F888301F
:101A6000236813F0020F08D09D4AD2F8883023F083
:101A70000C03E16B0B43C2F88830236813F0040FAA
:101A800008D0974AD2F8883023F03003216C0B43FA
:101A9000C2F88830236813F0080F08D0904AD2F8B3
:101AA000883023F0C003616C0B43C2F88830236890
:101AB00013F0100F08D08A4AD2F8883023F440730C
:101AC000A16C0B43C2F88830236813F0200F08D0B4
:101AD000834AD2F8883023F44063E16C0B43C2F8A8
:101AE0008830236813F4007F08D07D4AD2F888300C
:101AF00023F44023216E0B43C2F88830236813F48B
:101B0000806F08D0764AD2F8883023F44013616E93
:101B10000B43C2F88830236813F0400F08D0704A96
:101B2000D2F8883023F44053216D0B43C2F888303B
:101B3000236813F0800F08D0694AD2F8883023F464
:101B40004043616D0B43C2F88830236813F4807FF3
:101B500008D0634AD2F8883023F44033A16D0B4398
:101B6000C2F88830236813F4801F08D05C4AD2F88A
:101B70009C3023F00303E16D0B43C2F89C302368D3
:101B800013F4005F0FD0564AD2F8883023F0406338
:101B9000216F0B43C2F88830236FB3F1006F66D01A
:101BA000B3F1806F68D0236813F4002F0FD04C4A34
:101BB000D2F8883023F04063616F0B43C2F888305D
:101BC000636FB3F1006F5FD0B3F1806F61D02368B2
:101BD00013F4802F0FD0424AD2F8883023F04063AC
:101BE000A16F0B43C2F88830A36FB3F1006F58D0D8
:101BF000B3F1806F5AD0236813F4804F0FD0384A66
:101C0000D2F8883023F04053E16F0B43C2F888309C
:101C1000E36FB3F1805F51D0B3F1005F56D023681A
:101C200013F4004F09D02E4AD2F8883023F08043B5
:101C3000D4F880100B43C2F88830236813F4803F37
:101C400009D0274AD2F8883023F00043D4F8841012
:101C50000B43C2F88830384602B0BDE8F081374601
:101C6000EDE61F4A936D23F080539365EBE6D3684E
:101C700043F48013D36096E70121201DFFF7A0FCF9
:101C8000002890D007468EE7D36843F48013D360D2
:101C90009DE70121201DFFF793FC002897D0074600
:101CA00095E7D36843F48013D360A4E70121201D96
:101CB000FFF786FC00289ED007469CE70221201DE6
:101CC000FFF77EFC0028AAD00746A8E7022104F10E
:101CD0002000FFF72BFD0028A1D007469FE700BF9B
:101CE00000100240024A136843F004031360704777
:101CF00000100240026852E8003F23F4907342E86B
:101D000000310029F6D1026802F1080353E8003FD0
:101D100023F00103083242E800310029F3D1036EB9
:101D2000012B06D02023C0F8803000230366836691
:101D30007047026852E8003F23F0100342E8003188
:101D40000029F6D1EEE7000010B50446016883686B
:101D50000269134342691343C269134308688E4AF8
:101D600002401A430A602268536823F44053E16832
:101D70000B435360A1692268884B9A4201D0236AC1
:101D80001943936823F430630B4393602368844AB8
:101D9000934210D0834A934221D0834A934237D052
:101DA000824A93425CD0824A93426BD07B4A9342F0
:101DB0007DD010223AE002F55842D2F8882002F095
:101DC0000302032A09D8DFE802F002048706012291
:101DD0002CE004222AE0082228E0102226E002F566
:101DE000E632D2F8882002F00C020C2A0ED8DFE886
:101DF00002F0070D0D0D090D0D0D750D0D0D0B00EC
:101E0000002213E0042211E008220FE010220DE06E
:101E100002F5E432D2F8882002F03002202A5FD0A6
:101E20001AD8002A5ED0102A5ED104225B498B4268
:101E300076D0E069B0F5004F00F0A380082A00F2E8
:101E40000E81DFE812F0DD00F300DB000C01F6008C
:101E50000C010C010C01F900302A47D10822E5E7FA
:101E600002F5E232D2F8882002F0C002802A3FD088
:101E700004D8FAB3402A3FD10422D7E7C02A3DD183
:101E80000822D3E702F5E032D2F8882002F440724B
:101E9000B2F5007F34D005D8A2B3B2F5807F33D13C
:101EA0000422C3E7B2F5407F30D10822BEE702F535
:101EB000C832D2F8882002F44062B2F5006F27D011
:101EC00005D83AB3B2F5806F26D10422AEE7B2F559
:101ED000406F23D10822A9E70222A7E70222A5E743
:101EE0000222A3E70022A1E710229FE710229DE72C
:101EF00002229BE7002299E7102297E7102295E73C
:101F0000022293E7002291E710228FE710228DE74B
:101F100002228BE7002289E7102287E7102285E75B
:101F2000082A00F28C80DFE802F0088A2A8A278AD1
:101F30008A8A05004FF4004003E0FFF71DFB0028EC
:101F40007FD0626802EB420383427CD8B0EB023F51
:101F50007BD8010E00025308C0184FF0000341F176
:101F60000001FEF725F9A0F54072124B9A426ED897
:101F70002368D860002055E0FEF79CFEDFE70E489E
:101F8000DFE7082A65D8DFE802F019330564366414
:101F900064641D00084815E0F369FFEF008000400D
:101FA000003801400044004000480040004C004020
:101FB00000500040FFFC0F000024F400FFF7DCFAA3
:101FC000002848D06268530803EB4003B3FBF2F3E8
:101FD000A3F110014FF6EF7291423ED89AB222F06F
:101FE0000F02C3F3420313432268D360002019E0B9
:101FF000FFF7D4FAE4E7FEF75DFEE1E71B4802E0F5
:10200000FFF7BAFA68B3636800EB5300B0FBF3F074
:10201000A0F110024FF6EF739A4224D8236880B2E1
:10202000D86000200023A366E36610BDFFF7B6FA70
:10203000E8E7FEF73FFEE5E74FF40040E3E7012065
:10204000F0E70020EEE70120ECE70120EAE70120BD
:10205000E8E70120E6E70020E4E70120E2E70120CD
:10206000E0E70020DEE70120DCE700BF0024F40009
:10207000436A13F0080F06D00268536823F4004344
:10208000416B0B435360436A13F0010F06D00268A3
:10209000536823F40033816A0B435360436A13F09F
:1020A000020F06D00268536823F48033C16A0B43E1
:1020B0005360436A13F0040F06D00268536823F498
:1020C0008023016B0B435360436A13F0100F06D05B
:1020D0000268936823F48053816B0B439360436AD7
:1020E00013F0200F06D00268936823F40053C16BED
:1020F0000B439360436A13F0400F0AD002685368A1
:1021000023F48013016C0B435360036CB3F5801F01
:102110000BD0436A13F0800F06D00268536823F493
:102120000023816C0B43536070470268536823F4AB
:10213000C003416C0B435360EBE72DE9F8430546C0
:102140000F4616469946DDF820802B68DC6937EA91
:1021500004040CBF01240024B44232D1B8F1FF3F83
:10216000F3D0FEF7BDFAA0EB090040452CD8B8F13A
:10217000000F2BD02B681A6812F0040FE5D0DA6933
:1021800012F0080F11D1DA6912F4006FDDD04FF4AC
:1021900000621A622846FFF7ADFD2023C5F884309F
:1021A000002385F8783003200CE008241C622846C0
:1021B000FFF7A0FDC5F88440002385F878300120A2
:1021C00000E00020BDE8F8830320FBE70320F9E7E7
:1021D00030B583B004460023C0F88430FEF780FA9F
:1021E00005462268126812F0080F0FD123681B6899
:1021F00013F0040F26D12023E367C4F880300020B9
:102200002066606684F8780003B030BD6FF07E43CE
:102210000093034600224FF400112046FFF78DFF84
:102220000028E3D0226852E8003F23F0800342E810
:1022300000310029F6D12023E367002384F87830A9
:102240000320E1E76FF07E4300932B4600224FF41A
:1022500080012046FFF771FF0028CCD0226852E8A9
:10226000003F23F4907342E800310029F6D1226840
:1022700002F1080353E8003F23F00103083242E86B
:1022800000310029F3D12023C4F88030002384F8E2
:1022900078300320B8E768B310B50446C36F03B3C2
:1022A0002423E3672268136823F001031360636A41
:1022B000E3B92046FFF748FD012811D02268536892
:1022C00023F4904353602268936823F02A039360B9
:1022D0002268136843F0010313602046FFF778FF7C
:1022E00010BD80F87830FEF7E5F8D9E72046FFF713
:1022F000BFFEDEE70120704782B000230193019BFF
:1023000001330193019A0F4B9A4215D80369002BB0
:10231000F5DA00230193036943F001030361019B94
:1023200001330193019A074B9A4208D8036913F0CD
:10233000010FF4D1002000E0032002B07047032019
:10234000FBE700BF400D030084B010B504460DF15B
:102350000C0C8CE80E00C36843F04003C360FFF729
:10236000CBFF0C9B3BB9A36B43F48033A363BDE865
:10237000104004B07047A36B23F48033A363F6E7E7
:10238000836823F0010383600020704782B000233C
:102390000193019B01330193019A0F4B9A4215D887
:1023A0000369002BF5DA00230193890141F0200134
:1023B0000161019B01330193019A074B9A4208D8AE
:1023C000036913F0200FF4D1002000E0032002B0D5
:1023D00070470320FBE700BF400D030082B00023DD
:1023E0000193019B01330193019A0E4B9A4213D83A
:1023F0000369002BF5DA0023019310230361019B8D
:1024000001330193019A074B9A4208D8036913F0EC
:10241000100FF4D1002000E0032002B07047032029
:10242000FBE700BF400D0300D0F800381943C0F8A7
:10243000001800207047000084B0F8B5044607A8D3
:1024400080E80E00002306E003F1400204EB820264
:102450000021516001330E2BF6D9119E76BBD4F8C2
:10246000043843F00203C4F80438A36B23F40013C8
:10247000A363236843F040032360236843F0800391
:1024800023600023C4F8003E03212046FFF7CCFF61
:1024900010212046FFF77AFF054600B101252046AE
:1024A000FFF79CFF00B1012504F5006C0023CCF878
:1024B0001030CCF81430CCF81C300FE0A36B43F490
:1024C0000013A363DDE7C3B94FF00060C2F8000951
:1024D00000220A614FF67F328A60013307999942E0
:1024E00010D904EB431202F51061D2F8000900285C
:1024F000E9DB0020C2F80009EAE74FF09040C2F89B
:102500000009E5E700230AE0BBB14FF09047C2F8AD
:10251000007B002202614FF67F32826001339942D4
:1025200010D904EB431202F53060D2F8007B002F83
:10253000EADB0027C2F8007BEBE74FF00067C2F848
:10254000007BE6E7DCF8103023F48073CCF8103021
:102550000023A3616FF080436361A36943F010031C
:10256000A361A2690B4B1343A3610D9B1BB1A3692C
:1025700043F00803A361012E04D02846BDE8F840CB
:1025800004B07047A36943F0804343F00403A361A0
:10259000F3E700BF00383C80D0F8003E23F003038F
:1025A000C0F8003ED0F8043843F00203C0F8043805
:1025B00000207047406900F00100704738B50546BB
:1025C000C36823F0C043C360012913D019BBC3689B
:1025D00043F08043C36000240120FEF787F80134F4
:1025E0002846FFF7E7FF08B1312CF5D9322C14D07B
:1025F000002038BDC36843F00053C36000240120AD
:10260000FEF774F801342846FFF7D4FF0128EDD017
:10261000312CF4D9EAE70120EBE70120E9E70000DB
:10262000DFF834D0FEF70EF80C480D490D4A0023B0
:1026300002E0D458C4500433C4188C42F9D30A4A77
:102640000A4C002301E013600432A242FBD300F0E5
:1026500019F8FDF7E7FEFEE7000005200000002066
:1026600010000020002A000810000020C4050020EF
:10267000FEE702440346934200D1704703F8011B72
:10268000F9E7000070B50D4D0D4C641BA410002639
:10269000A64209D10B4D0C4C00F076F9641BA41036
:1026A0000026A64205D170BD55F8043B9847013677
:1026B000EEE755F8043B98470136F2E7F0290008A9
:1026C000F0290008F0290008F42900082DE9F04756
:1026D000089D0C46002B4ED194468C458646B2FA96
:1026E00082F262D94AB1C2F12003914020FA03F389
:1026F0000CFA02FC194300FA02FE4FEA1C471FFACB
:102700008CF6B1FBF7F44FEA1E4307FB141143EAC2
:10271000014304FB06F199420AD91CEB030304F1BF
:10272000FF3080F01281994240F20F81023C6344F5
:10273000591A1FFA8EF3B1FBF7F007FB101143EAA9
:10274000014300FB06F69E420AD91CEB030300F18D
:10275000FF3180F0FC809E4240F2F98063440238F1
:102760009B1B40EA044000211DB1D3400022C5E973
:102770000032BDE8F0878B4205D90DB1C5E90001F3
:1027800000210846F5E7B3FA83F1002946D1A342B8
:1027900002D39042C0F0F080861A64EB030301205C
:1027A000002DE6D0C5E90063E3E7002A40F0908001
:1027B000A1EB0C044FEA1C481FFA8CF70121B4FB73
:1027C000F8F64FEA1E4308FB164443EA044307FBAE
:1027D00006F0984208D91CEB030306F1FF3402D23D
:1027E000984200F2CD8026461C1A1FFA8EF3B4FBE5
:1027F000F8F008FB104443EA044300FB07F79F424C
:1028000008D91CEB030300F1FF3402D29F4200F20F
:10281000B0802046DB1B40EA0640A5E7C1F1200658
:102820008B4022FA06F71F4320FA06FC04FA01F354
:1028300043EA0C03F44000FA01F8380C4FEA13495C
:10284000B4FBF0FE1FFA87FC00FB1E4449EA044477
:102850000EFB0CF9A14502FA01F20AD93C190EF15E
:10286000FF3A80F08480A14540F28180AEF1020EF3
:102870003C44A4EB09041FFA83F9B4FBF0F300FB1A
:10288000134449EA044403FB0CFCA44507D93C1952
:1028900003F1FF3067D2A44565D9023B3C4443EACB
:1028A0000E40A0FB0293A4EB0C049C42CE469C4637
:1028B00051D34ED055B1B8EB0E0364EB0C0404FABF
:1028C00006F6CB401E43CC40C5E90064002150E72A
:1028D000C2F1200320FA03F10CFA02FC24FA03F3FC
:1028E00094400C434FEA1C4800FA02FE1FFA8CF792
:1028F000B3FBF8F008FB1031230C43EA014300FB63
:1029000007F1994208D91CEB030300F1FF362CD2E2
:1029100099422AD9023863445B1AA4B2B3FBF8F196
:1029200008FB113344EA034401FB07F3A34208D92F
:102930001CEB040401F1FF3613D2A34211D9023972
:102940006444E41A41EA004139E70446F0E60846E7
:1029500006E7C845AED2B9EB020E63EB070C0138AF
:10296000A8E73146EDE7034699E73046D4E7D64677
:102970007FE7634402384DE70646234608460FE7E3
:10298000023E634430E700BFF8B500BFF8BC08BCA6
:102990009E467047F8B500BFF8BC08BC9E4670471D
:1029A000A0860100400D0300801A060000350C00CF
:1029B00040420F0080841E0000093D0000127A0092
:1029C0000024F40000366E010048E801006CDC02CF
:1029D00000000000010203040000000000000000ED
:0829E0000102030406070809C7
:0829E800E4FCFF7F0100000088
:0829F0000902000800000000CC
:0829F800E501000800000000E9
:102A000000093D000100000010000000000000006F
:0400000508002621A8
:00000001FF
